:020000040000FA
:0400000010EF00F00D
:020004000000FA
:08000800F2B496EF00F09EBC7B
:0600100080EF00F010007B
:100020000A0E606F070ED56EA10ED76E120ED66E39
:10003000F294D58EF28AF28E2FEC00F038EC00F0BC
:10004000C282949294949496828282948296030EB1
:10005000626F0A0E636F938081CF83FFFDD7040E1A
:10006000C16EC10EC26E9E9C9D8CF28CF28E1200EF
:060070001E0E616F12007C
:100100009E9CF00EC46490EC00F0C4608AEC00F099
:10011000B6EF00F0010E626F030E636FB6EF00F0F2
:10012000030E626F0A0E636FB6EF00F0F294A10E39
:10013000D76E120ED66E600719E19FEF00F082B203
:10014000A7EF00F082B4ACEF00F0B1EF00F08284D2
:10015000829262C060F010008286829463C060F078
:0E01600010008282829663C060F010001000D2
:020000040030CA
:0100010005F9
:0100020010ED
:0100030010EC
:01000500807A
:010006008178
:00000001FF
