:020000040000FA
:0400000010EF00F00D
:020004000000FA
:08000800F2B49AEF00F09EBC77
:0600100080EF00F010007B
:100020002FEC00F038EC00F0C282949294949496F5
:10003000828282948296030E626F0A0E636F9380AF
:100040000A0E606F070ED56EA10ED76E120ED66E19
:10005000F294D58EF28AF28E81CF83FFFDD7040E03
:10006000C16EC10EC26E9E9C9D8CF28CF28E1200EF
:0C0070001E0E616F612F3AEF00F01200CD
:10010000F00EC46494EC00F0C4608EEC00F08B6ED2
:100110009E9C38EC00F0C282BAEF00F0010E626FD4
:10012000030E636FBAEF00F0050E626F0E0E636F81
:10013000BAEF00F0A10ED76E120ED66EF2946007E1
:1001400019E1A3EF00F082B2ABEF00F082B4B0EFA0
:1001500000F0B5EF00F08284829262C060F010007F
:100160008286829463C060F010008282829663C0AF
:0601700060F01000100019
:020000040030CA
:0100010005F9
:0100020010ED
:0100030010EC
:01000500807A
:010006008178
:00000001FF
