:020000040000FA
:0400000048EF00F0D5
:020004000000FA
:08000800F2B418EF08F09EBCF1
:0600100000EF08F01000F3
:10009000030E626F080E636F0A0E606F070ED56E57
:1000A000A10ED76E120ED66EF294D58EF28AF28E13
:1000B00066EC00F06FEC00F0C282949294949496F7
:1000C0008282829482969380C282FED7040EC16E91
:1000D000C10EC26E9E9C9D8CF28CF28E1200320E6E
:0A00E000616F612F71EF00F0120054
:101000009E9C6FEC00F0100EC46412EC08F0C460FB
:101010000CEC08F038EF08F0010E626F030E636FFE
:1010200038EF08F0030E626F0A0E636F38EF08F0B6
:10103000F294A10ED76E120ED66E600719E121EF61
:1010400008F082B229EF08F082B42EEF08F033EFF7
:1010500008F08284829262C060F0100082868294DE
:1010600063C060F010008282829663C060F010005E
:0210700010006E
:020000040030CA
:0100010005F9
:0100020010ED
:0100030010EC
:01000500807A
:010006008178
:00000001FF
