:020000040000FA
:0400000048EF00F0D5
:020004000000FA
:08000800F2B419EF08F09EBCF0
:0600100000EF08F01000F3
:10009000030E626F080E636F0A0E606F070ED56E57
:1000A000A10ED76E120ED66EF294D58EF28AF28E13
:1000B00067EC00F070EC00F0C282949294949496F5
:1000C000828282948296938081CF83FFFDD7040E33
:1000D000C16EC10EC26E9E9C9D8CF28CF28E12007F
:0C00E0001E0E616F612F72EF00F0120025
:101000009E9C70EC00F0C282F00EC46413EC08F0F9
:10101000C4600DEC08F039EF08F0010E626F030EAA
:10102000636F39EF08F0030E626F0A0E636F39EFDA
:1010300008F0F294A10ED76E120ED66E600719E179
:1010400022EF08F082B22AEF08F082B42FEF08F006
:1010500034EF08F08284829262C060F010008286D1
:10106000829463C060F010008282829663C060F058
:04107000100010005C
:020000040030CA
:0100010005F9
:0100020010ED
:0100030010EC
:01000500807A
:010006008178
:00000001FF
