:020000040000FA
:0400000010EF00F00D
:020004000000FA
:08000800F2A4100080EF00F0EB
:1000200082829494949693800A0E606F070ED56E28
:10003000F10ED76E120ED66EF294D58EF28AF28E33
:0600400081CF83FFFDD714
:10010000A10ED76E120ED66EF294600720E18CEF2E
:1001100000F082720A0E606F82B295EF00F082B436
:100120009BEF00F082B69BEF00F082848292030E78
:10013000606FA7EF00F0828682940A0E606FA7EFCF
:1001400000F0828282960A0E606FA7EF00F0100026
:020000040030CA
:0100010005F9
:0100020010ED
:0100030010EC
:01000500807A
:010006008178
:00000001FF
