:020000040000FA
:0400000048EF00F0D5
:020004000000FA
:08000800F2B43FEF08F09EBCCA
:0C00100027EF08F09EBA00EF08F0100087
:10009000030E636F080E646F6E0E606F0A0E616F61
:1000A000070ED56EA10ED76E120ED66EF294D58EB7
:1000B000F28AF28E75EC00F07EEC00F0C2828A6A61
:1000C000936A949CA20EAF6EAC8AAC84AB8EAB8864
:1000D0009E9A9D8AF28CF28E949294949496828247
:1000E000829482969380C282FED7040EC16EC10EA6
:1000F000C26E9E9C9D8CF28CF28E1200320E626F4C
:08010000622F80EF00F01200F5
:10100000060EAB14D8B409EC08F08A6EAD6E7CEF16
:1010100008F06E0EAE6213EF08F0E8CF60F048EF14
:1010200000F07CEF08F0630EAE621BEF08F0E8CF33
:1010300060F07CEF08F0610EAE62E8CF60F07CEF0C
:1010400008F0AB98AB88FF0E816E7CEF08F09E9C99
:101050007EEC00F0100EC46439EC08F0C46033EC90
:1010600008F07CEF08F0010E636F030E646F7CEFF5
:1010700008F0030E636F0A0E646F7CEF08F0F294C1
:10108000A10ED76E120ED66E610736E161EF08F041
:101090008292829482967CEF08F0630E60635AEF2E
:1010A00008F053EF08F0010E616F8292829482760D
:1010B0007CEF08F0829282948296010E616F7CEF41
:1010C00008F06E0E60634DEF08F082B26DEF08F02D
:1010D00082B472EF08F077EF08F08284829263C0E6
:1010E00061F010008286829464C061F010008282F8
:0A10F000829664C061F01000100049
:020000040030CA
:0100010005F9
:0100020010ED
:0100030010EC
:01000500807A
:010006008178
:00000001FF
